:040000007FEF02F09C
:100008000BC017F00CC016F00DC015F0F2A01AD0F6
:1000180081AE15D08480060E0B6E130E0C6EAD0EDD
:100028000D6E0D2EFED70C2EFCD70B2EFAD7000026
:1000380000008490422A84A201D001D0FCD781BC60
:100048004380F29017C00BF016C00CF015C00DF0ED
:02005800110095
:10005A000F0E0C6E470E0D6E0D2EFED70C2EFCD712
:06006A000000000012007E
:0600700000000000120078
:0A007600210E0D6E0D2EFED71200B4
:10008000086A080E0C6E003408360450085ED8B0BA
:0E00900002D00826D89000360C2EF5D71200AC
:10009E000001606B030E605D0AE260515E24E16E4A
:1000AE00000E5F20E26E200EE66E602BF3D76051DD
:1000BE005E24E16E000E5F20E26EE66A600760511C
:1000CE005E24616F000E5F20626F0A0E046E5DC0CB
:1000DE0000F0CFDF08C000F0300E002661C0E1FF57
:1000EE0062C0E2FF00C0E6FF0A0E046E5DC000F0C3
:1000FE00C0DF00C05DF00050000A01E102D06007D1
:04010E00DED7120026
:100112005DBE02D08A9601D08A865DBC02D08A94E6
:1001220001D08A845DBA02D08A9201D08A825DB8F7
:1001320002D08A9001D08A8043B202D08A8801D04C
:100142008A988A8A94DF8A9A5DB602D08A9601D00A
:100152008A865DB402D08A9401D08A845DB202D0CC
:100162008A9201D08A825DB002D08A9001D08A80C0
:1001720043B202D08A8801D08A988A8A78DF8A9A22
:0C01820043A202D069DF01D075DF12003B
:0C018E00439254C05DF0BEDF43821200BB
:10019A000134083609360450085E0550D8A0053CDB
:1001AA00095E003601360F0E0C6E01340836093628
:1001BA00045000A006D0085E0550D8A0053C095E90
:1001CA0005D008260550D8B0053C09260036013668
:1001DA000C2EEBD700B006D0045008260550D8B034
:0801EA00053C0926000012008B
:1001F200596A5A6A54C05BF0000E54BEFF0E5C6E20
:10020200800E5418006E800E000A005C0AE2594A01
:100212005A2A545000085B6E5C6A000E54BEFF0EF0
:100222005C5A5BC05DF055C05EF056C05FF036DFD1
:10023200040E576E000E586E000E006E5850005C91
:1002420002E15750000819E257505524E16E585008
:100252005620E26E010E575C006E000E5858016E79
:1002620000505524E96E01505620EA6EEECFE6FFAB
:10027200010E575E000E585ADFD755C0E1FF56C037
:10028200E2FF200EE66E59505A101AE0576A586A79
:1002920057505524E96E58505620EA6EEE50200A07
:1002A20003E1574A582AF4D7010E575E000E585AF6
:1002B20057505524E16E58505620E26E2D0EE66ED0
:0202C200120028
:1002C4000900F5CFE6FF0006FBE10106F9E11200A3
:1002D4004390446A426A3C6A546A3D0E556E000E6D
:1002E400566E85DF546A450E556E000E566E7FDFDE
:1002F400546A4A0E556E000E566E79DF0F013B6B41
:10030400396B3A6B3C6B946A956A020E966EC00E1A
:10031400936E628E628CF286F290F28E8C6A826A9E
:04032400846A1200D5
:100328000450000A08E10550000A05E1FF0E006EBE
:100338007F0E016E57D00D6A096A086A01500010D5
:10034800D8B4000C015005180A6E0ABE0D1E0B6ABF
:1003580005AE05D0041E051E042AD8B4052A01AE30
:1003680005D0001E011E002AD8B4012A015005102C
:100378000A6E0ABE10D00DDF0BB020D00DAE000CF7
:10038800001E011E002AD8B4012A081E091E082AC8
:10039800D8B4092A000C05AE0DD001BE07D0015013
:1003A800096E0050086E016A006AE8D7016A006A9F
:1003B800002A000C011E001E0B2ADDD7082AD8B41B
:1003C800092A0450085CD8A4D9D70550095CD8A4D8
:1003D800D5D7096A086A002AD8B4012A01AECED74F
:0603E8000000FF0C1200F2
:1003EE000FD0800E4F6E19D0C00E4F6E16D0940ED9
:1003FE004F6E13D0D40E4F6E10D0800E4F6E0DD0A8
:10040E004F50010AEEE04F50020AEEE04F50030A41
:10041E00EEE04F50040AEEE0F0D75004006E4F505D
:10042E00002600C04FF000C05DF06CDE4392536AB0
:10043E0053505124E96E000E5220EA6EEE520BE03C
:10044E0053505124E96E000E5220EA6EEECF54F056
:0A045E0097DE532AEDD74382120007
:10046800939A939893909392939493968A9A8A984E
:100478008A968A948A928A90ECDDEBDDEADD8A829C
:100488008A808A8AF1DD8A9AE4DD8A8AEDDD8A9A91
:10049800E0DD8A8AE9DD8A9ADCDD8A908A8AE4DDF1
:1004A8008A9AD7DD8A8AE0DD8A9A8A928A868A8A37
:1004B800DBDD8A9ACEDD8A968A808A8AD5DD8A9A99
:1004C8008A908A8AD1DD8A9AC4DD8A8ACDDD8A9AA1
:1004D8008A808A8AC9DD8A9ABCDD8A908A8AC4DDC4
:1004E8008A9A8A868A848A828A808A8ABDDD8A9ADA
:0604F800B0DD438212009A
:1004FE001BEC03F0E8DEB1DF010E5D6E03DE0C0EC9
:10050E005D6E00DE4450B40845E30B0E0B6E260EF6
:10051E000C6E5D0E0D6E0D2EFED70C2EFCD70B2E17
:10052E00FAD700000000442A44C054F03D0E556E28
:10053E00000E566E57DE42C054F0450E556E000E3C
:10054E00566E50DE010E4F6E010E506E2D0E516E18
:10055E00000E526E45DF010E4F6E100E506E450EA0
:10056E00516E000E526E3CDF020E4F6E010E506E3B
:10057E00200E516E000E526E33DF020E4F6E0D0EB8
:10058E00506E3D0E516E000E526E2ADF43A001D00A
:10059E0001D0B8D7F29E4450B408006E016A000E26
:1005AE00015A42C004F0000E056EB7DE00C03CF0EA
:1005BE0000C054F04A0E556E000E566E13DE4450B7
:1005CE00B408006E016A000E015A42C004F0000E1B
:1005DE00056EA3DE00C082FF42C083FF030E4F6E86
:1005EE00010E506E180E516E000E526EF9DE030E95
:1005FE004F6E080E506E4A0E516E000E526EF0DEA9
:04060E00DED7FFD75D
:1006360010EE18F0240E006E010E016E120EF66E0C
:0E064600060EF76E000EF86E62EC01F0120068
:0806120053636F72653A20008A
:0D061A0054696D652054616B656E3A2000D7
:0F06270054696D65732042726F6B656E3A2000E7
:020000040030CA
:0D000100231F3CFFBF81FF0FC00FE00F4029
:00000001FF
